:020000040042B8
:10000000E0B244204D024200550242005702420035
:10001000590242005B0242005D0242000000000003
:100020000000000000000000000000005F0242002D
:10003000610242000000000063024200054A4200E3
:100040006702420067024200670242006702420004
:1000500067024200670242006702420067024200F4
:10006000670242000000000067024200670242008F
:10007000670242006702420067024200314F4200BD
:100080006702420067024200051F42000D4B42001A
:1000900067024200670242006702420067024200B4
:1000A00067024200670242006702420067024200A4
:1000B0006702420067024200670242006702420094
:1000C000670242006702420067024200000000002F
:1000D0000000000000000000000000000000000020
:1000E0006702420067024200670242006702420064
:1000F000670242004D4E4200670242006702420022
:100100006702420067024200670242006702420043
:100110006702420000000000000000000000000034
:100120006702420067024200B55542006702420082
:1001300067024200000000006702420067024200BE
:1001400000F002F800F072F80AA090E8000C824477
:100150008344AAF10107DA4501D100F067F8AFF254
:10016000090EBAE80F0013F0010F18BFFB1A43F095
:100170000103184778C6000098C600000A444FF0F3
:10018000000C10F8013B13F0070408BF10F8014BF6
:100190001D1108BF10F8015B641E05D010F8016B3B
:1001A000641E01F8016BF9D113F0080F1EBF10F89F
:1001B000014BAD1C0C1B09D16D1E58BF01F801CBC2
:1001C000FAD505E014F8016B01F8016B6D1EF9D545
:1001D0009142D6D37047000000230024002500265A
:1001E000103A28BF78C1FBD8520728BF30C148BF9A
:1001F0000B607047642900F07F80752900F07C80D7
:10020000782900F0B580732900F03E830020704704
:100210001FB50CF097F89DE8030000F099FE00F080
:10022000AFFB1FBD10B500F014FC10BD00F04CFC7E
:100230001146FFF7EDFF09F051FE00F03BFE03B45D
:10024000FFF7F0FF03BC00F079FB0000094880478E
:1002500009480047FEE7FEE7FEE7FEE7FEE7FEE7A8
:10026000FEE7FEE7FEE7FEE704480549054A064BC0
:10027000704700000D4A420041014200E0AC4420BA
:10028000E0B24420E0AE4420E0AE44200FB4044984
:1002900010B503AA029800F0FBFA10BC5DF814FB3D
:1002A000D4AB442070B50C460546012A05D0287809
:1002B000800600D5EA69002302E0012305E05B1C0B
:1002C000934202D2E05C0028F9D1A869E618C01A6E
:1002D000A861286A184428622846AFF3008004E029
:1002E000D5E9012114F8010B9047B442F8D3284610
:1002F000AFF3008070BD00002DE9F04106460024F8
:1003000010687529314616A510D0AFF3008000287B
:1003100002DA404213A507E031688A0701D512A529
:1003200002E0490704D511A5012401E0AFF30080E4
:1003300000210A2206F1240709E0B0FBF2FCB0FB21
:10034000F2F302FB1C00303078541846491C002898
:10035000F3D123462A463046BDE8F04100F029BAE1
:10036000000000002D0000002B0000002000000015
:1003700070B504460D4621461068AFF30080218811
:10038000090502D50F4A7A4402E00E4A7A440E3239
:10039000002104F1240305E000F00F060009965D3A
:1003A0005E54491C0028F7D120780023000704D5AB
:1003B000702D02D009B1022311322046BDE87040F1
:1003C00000F0F7B929C400002DE9F05F8946044622
:1003D0004FF0000ADFF874B1FB44C0F820A02046BB
:1003E000E1688847002874D0252806D0D4E9012187
:1003F0009047206A401C2062F1E700265F462046B5
:10040000E16888472028054607DB312D05D2781999
:1004100010F8200C08B10643F1E7B00701D526F02B
:100420000406C4F81CA00027C4F818A02A2D09D07F
:10043000284606F003FB38B304EB8708303DC8F8C4
:10044000185019E059F8041B204604EB870291610B
:10045000E1688847012F054618D1E069002820DAB5
:1004600026F020061DE0D8F8180000EB800005EB10
:1004700040003038C8F818002046E1688847054633
:1004800006F0DCFA0028EED1012F0AD02E2D08D17B
:100490002046E16888477F1C0546022F46F020066B
:1004A000C4DBA069002803DA404246F00106A061DF
:1004B000F00701D026F010066C2D0BD0682D09D066
:1004C0004C2D39D06A2D35D0742D35D07A2D33D0BE
:1004D00016E038E0E1682F4620468847B8420546D6
:1004E00009D16C2F26D04FF48060E1680643204686
:1004F0008847054604E06C2F1AD04FF480700643FD
:100500000DB3A5F14100192802D8203546F4006644
:100510004A462946204626604E46FFF76BFE80B1CC
:1005200001280BD0F61D26F0070000F1080956E758
:100530004020E4E78020D8E70020D6E706F1040950
:100540004DE7284652E7206ABDE8F09FFFC3000050
:100550000EB5054614460E4613A000F07FFE284651
:1005600000F07CFE16A000F079FE304600F076FE2A
:1005700015A000F073FE00218DF80B100A210DF17B
:100580000A008DF80A1008E094FBF1F201FB124218
:1005900094FBF1F4303200F8012D002CF4DC00F073
:1005A0005DFE00F087F900002A2A2A206173736536
:1005B0007274696F6E206661696C65643A20000030
:1005C0002C2066696C6520002C206C696E6520000B
:1005D00040EA010310B59B070FD1042A0DD310C8C0
:1005E00008C9121F9C42F8D020BA19BA884201D912
:1005F000012010BD4FF0FF3010BD1AB1D30703D05A
:10060000521C07E0002010BD10F8013B11F8014B0F
:100610001B1B07D110F8013B11F8014B1B1B01D12B
:10062000921EF1D1184610BD032A40F2308010F01E
:10063000030C00F0158011F8013BBCF1020F62447D
:1006400098BF11F801CB00F8013B38BF11F8013B0E
:10065000A2F1040298BF00F801CB38BF00F8013BBB
:1006600011F0030300F03181083AC0F0088051F81E
:10067000043B083A51F804CBA0E80810F5E7121D36
:100680005CBF51F8043B40F8043BAFF30080D20755
:1006900024BF11F8013B11F801CB48BF11F8012B21
:1006A00024BF00F8013B00F801CB48BF00F8012B44
:1006B00070474FF000020429C0F0128010F0030CC4
:1006C00000F01B80CCF1040CBCF1020F18BF00F845
:1006D000012BA8BF20F8022BA1EB0C0100F00DB8F4
:1006E0005FEAC17C24BF00F8012B00F8012B48BF52
:1006F00000F8012B70474FF0000200B513469446F6
:100700009646203922BFA0E80C50A0E80C50B1F169
:100710002001BFF4F7AF090728BFA0E80C5048BF7D
:100720000CC05DF804EB890028BF40F8042B08BF1B
:10073000704748BF20F8022B11F0804F18BF00F817
:10074000012B70474FF0013C50F8042B51F8043B4B
:100750009A4215D1A2EB0C03934313EACC130BD1AD
:1007600050F8042B51F8043B9A4209D1A2EB0C0338
:10077000934313EACC13E7D04FF00000704700BF5B
:10078000D01A01BAB1FA81F101F0180122FA01F090
:10079000CB40C1F12001DBB2C0B2C01A2CFA01F388
:1007A000D11A914311EAC311E6D1704770477047DF
:1007B00070472DE9F0470D4699469246044600F1F0
:1007C00024080168880604D5E06921F01001216041
:1007D00000E00120A84201DD471B00E00027A169DD
:1007E0007A1902EB0900081AA0612078C00602D429
:1007F0002046AFF30080002608E0D4E901211AF872
:1008000006009047206A401C761C20624E45F4DBAF
:100810002078C0060AD52046AFF3008006E0D4E970
:10082000012130209047206A401C2062381EA7F129
:100830000107F4DC07E0D4E9012118F8050090472E
:10084000206A401C2062281EA5F10105F3DC204629
:10085000AFF300802078000602D50220BDE8F087C3
:100860000120FBE710B5436913B1AFF3008001E04D
:10087000FFF718FD012010BD127800F124010A7065
:1008800000224A700122EDE711684FF0FF32E9E7DC
:10089000074B70B50D467B4400F05BF804462846D4
:1008A00000F06AF810B14FF0FF3070BD204670BD07
:1008B000177F000010B5002000F0FEF8FFF7B2FC33
:1008C000BDE81040012000F039B810B5203AC0F062
:1008D0000B80B1E81850203AA0E81850B1E8185041
:1008E000A0E81850BFF4F5AF5FEA027C24BFB1E87E
:1008F0001850A0E8185044BF18C918C0BDE81040EF
:100900005FEA827C24BF51F8043B40F8043B08BFF7
:100910007047D20728BF31F8023B48BF11F8012BBE
:1009200028BF20F8023B48BF00F8012B704708B5EC
:1009300069468DF800000320ABBE08BD01491820B0
:10094000ABBEFEE72600020001694A1C026108787E
:10095000704700B58FB0CDE90131002105910549FF
:100960007944CDE9031011466846FFF72DFD0FB01D
:1009700000BD0000E5FFFFFF007B00F08000704736
:1009800010B542485421FFF7B6FE41485421FFF705
:10099000B2FE40485421FFF7AEFE3F493B483C4A77
:1009A0003F4B08603D490A603A491960531C036592
:1009B000481C1065012008653B48344A39A1784439
:1009C00000F0DCF920B9384878440A3800F098FA89
:1009D00037482F4A35A1784400F0D0F920B934487F
:1009E00078440A3800F08CFA32482A4A2FA1784419
:1009F00000F0C4F920B92F4878440A3800F080FA92
:100A000040232248DC000021224600F094F920B166
:100A100025487844543800F073FA1D482246402394
:100A2000002100F088F920B121487844543800F0C2
:100A300067FA184822461023002100F07CF90028AC
:100A400006D01C487844BDE81040563800F058BA2B
:100A500010BD104870B5006D20F001040B4800F087
:100A600003FA0B4800F000FA0A4800F0FDF909E02B
:100A7000206D20F00105204600F0F6F9204600F038
:100A800048F82C46002CF3D170BD000080AB442008
:100A9000D4AB442028AC4420E0024020E4024020B3
:100AA000E802402072000000DABD0000770000007C
:100AB000C9BD0000B9BD000010B500F009FABDE8DD
:100AC000104000F000BA7047754600F021FAAE46BB
:100AD00005006946534620F00700854618B020B54A
:100AE000FFF7C2FBBDE820404FF000064FF00007C3
:100AF0004FF000084FF0000B21F00701AC46ACE8C6
:100B0000C009ACE8C009ACE8C009ACE8C0098D4632
:100B1000704770B50446051F00F0FEF90068002C10
:100B200014BF446870BD002C18BFAC423CBF2046C7
:100B30006468F8D301680A18AA4218BF456003D157
:100B40002A6805461144016028684119A1421CBF6A
:100B50006C6070BD6168696021680844286070BD80
:100B60002DE9F04705460C46C86820F4201040F4F3
:100B70008000C860800602D5084600F01AFBE068D5
:100B800041F282014FF0FF390140022903D0204693
:100B900000F0B8FAB5E000F42041B1F5004F0FD1F4
:100BA000C00306D56168E06A884200D808466060E4
:100BB00006E02069E0626060606905F059FFA061AD
:100BC000A0680022EEB200280DDAE1688B050AD495
:100BD000C043A06041F490302260E0606068411C36
:100BE00061600670A5E0E0689046226040F4005025
:100BF000E060206968BB606905F04CFF012704F1E3
:100C00002405A0B1A08910F4407F08D0E06900F06D
:100C1000CEF9206118B1E06840F4006016E0E761A9
:100C20002561E06820F4407040F480600EE0E069E7
:100C300000F0BDF900282061F1D0E06840F40060C8
:100C400010F4407FE06002D140F48070E0602069E1
:100C50006060E06825696FF0010AC1051FD5616811
:100C6000E06A884200D80846411B04D02246284644
:100C700000F052FAF0BBE068010203D5E562C4E976
:100C8000015854E0691CE1626160E16940F4803020
:100C9000491EC4E9021030462E70BDE8F0870102FB
:100CA00002D500F480320AE06068411C6160067081
:100CB000E0680A2E40F48030E06006D00022E16A4D
:100CC0006068814203D90B4602E00122F7E7034640
:100CD000A7895B1B7F0503D4E7699F4200DDE2B172
:100CE000814200D80146E5620F1AC4E90158002B81
:100CF00009DD00E005E022461946284600F00CFA1E
:100D000008B14846C9E747B1A069E5626560C01B04
:100D1000A061E06840F01000E060E068000208D5E3
:100D20006168A069E562491B08446560A06150469E
:100D3000B3E73046B1E770B5C468A50713D06502C4
:100D400011D4B2F5807F09D0B2F5007F06D0B2F59C
:100D5000806F08D1012300F1240106E05D1E6FF0D1
:100D60007F46B54201D3012070BD0161C36141607E
:100D700024F470611143C160002070BD2DE9F04181
:100D80000C4607461646104600F06EF82078611CA7
:100D900061280AD0722802D077283CD102E00125D0
:100DA000002405E00225042402E0082448F202059C
:100DB00011F8010B2B2806D0622809D011F8010C7C
:100DC00074280AD00BE045F0030544F00204EFE775
:100DD00045F0040544F00104EAE744F01004384605
:100DE000214605F069FE411C15D00021316171607A
:100DF0004FF40071F560F1617061200704D5304651
:100E00000222002100F002F9306D40F0010030654F
:100E10003046BDE8F0810020FBE72DE9F0410D46AA
:100E20000646104C206DC10704D0410804D020F0C4
:100E30000104F7E722460EE0542000F0B8F807005E
:100E40000ED0206D47F0010108435421206538463B
:100E5000FFF751FC3A4629463046BDE8F0418DE7A0
:100E60000020D6E780AB44202DE9F04704464FF040
:100E700000094FF0FF37C568D4E90486A80707D0FA
:100E8000204600F073F9304605F0DFFD002802DA55
:100E90003846BDE8F087280502D54046FFF739FE01
:100EA0004C212046FFF727FC206D20F00100206533
:100EB0004846EEE710B50446AFF300802046BDE893
:100EC0001040FFF7BCB9002801D0FFF737BD7047CD
:100ED00010B5002102A000F08DF9012010BD000026
:100EE000534947414252543A2041626E6F726D61DC
:100EF0006C207465726D696E6174696F6E000000BC
:100F000010B500F091F9BDE81040FFF7DCBF00001C
:100F1000004870477CAC44200048704784AC4420B3
:100F2000704770477047704738B504460A4600203E
:100F30006946AFF30080002808BF38BD024600991B
:100F4000204600F09EF9012038BD012000F018BABB
:100F5000F8B5AFF30080054600200C46102000BF16
:100F60000646A819A0420DD9324669460020AFF3C3
:100F70000080070008BF00F003FA0098A04218BFE5
:100F80000546C419FFF7C8FF05600746F01D20F0AD
:100F900007004619284600F06DF9B44208BFF8BDB5
:100FA000A21B31463868BDE8F84000F06AB970B558
:100FB0000646FFF7B1FF056806F10B0020F00704B5
:100FC000B4429CBF002070BD2B466A68BAB110685D
:100FD000A04210D304F1080188423CBF5068586019
:100FE00007D35168101941601168091B01605860EE
:100FF0001460101D70BD13465268002AE7D12146C7
:101000002846FFF791FF0028DED170BD2DE9F041A1
:10101000044616460D464769007B80072ED03846A9
:1010200005F038FD50BB3EB3012E02D0022E25D173
:1010300004E0204600F083F905441DE0384605F041
:1010400017FDE168002841F01001E16005DA204653
:1010500000F058F80120BDE8F081C9030BD56268A3
:10106000E16A914200D81146A26911442269891AA5
:10107000814200DD08460544002D01DA0220EAE73E
:10108000E16A6068E268814206D29103E06203D5BA
:1010900022F4003141F01002A6690027AE4213DCB1
:1010A000E16A814201D90B4600E0034603EB060CDE
:1010B0002369ACEB030CAC4506DD814201D98C46BB
:1010C00000E084469C4505D1A760276042F02000DF
:1010D000A5620DE0AD1BE669AE1B8142A66000D99A
:1010E0000846C01A281A20605819606022F02000B3
:1010F00003490840E060002084F84870ABE7000036
:10110000BFCFD7FFC16821F4001141F08001C16059
:1011100000218160016070472DE9F0478146144647
:101120000E464FF0FF383248D5685769054209D05E
:101130003846A16905F0F4FC002811DB2C48C043B7
:101140000540E5602B4632464946384605F0FEFC30
:10115000A16920F00042B21A11440028A16103D015
:101160002046FFF7CFFF4046BDE8F08770B5044644
:101170000569C06A6168884200D80846E16821F4C0
:101180002011E160C90312D5A84208D02246411BB4
:101190002846FFF7C1FF10B14FF0FF3070BD0020AF
:1011A000E562C4E90150E06820F48030E06000208E
:1011B00070BD10B50446C06820F02000E060A16A50
:1011C000A06988420DD02046FFF7D0FFE06820F4E8
:1011D000405040F01000E060A06AA0612069E06229
:1011E000606044F24001E0688843E06010BD0000A8
:1011F0001000020070B505460C460A2000E06D1C88
:10120000FFF795FB35B128780028F8D102E0641C7F
:10121000FFF78DFB14B120780028F8D1BDE87040AD
:101220000A20FFF784BB000010B5014602A0FFF7BB
:10123000E1FF012010BD000053494752545245447C
:101240003A2052656469726563743A2063616E275F
:1012500074206F70656E3A200000000010B50449DC
:1012600000F05CF8BDE81040014800F040B8000014
:1012700028AC442000210160C0E901107047102013
:101280007047034640688C46002818BF88423CBF20
:1012900003464068F8D318681844884207D00CF118
:1012A000030020F00700001D411A521A0146081DD4
:1012B0000A60FFF72EBC000070B50446C0688107C5
:1012C00013D0800601D5A56A04E0A16960680844CE
:1012D0002169451A2046FFF749FF002206462946A4
:1012E0002046FFF793FE304670BD002070BD70B5FC
:1012F00010B1BDE87040DFE70025074C6E1E07E027
:101300002046FFF7D9FF00B13546206D20F00104DB
:10131000002CF5D1284670BD80AB442070B50D4639
:10132000044604E0294607F043FA401C04D014F8B0
:10133000010B0028F6D170BD4FF0FF3070BD10B525
:101340000146C268900703D0900607D5886A0AE074
:1013500000F01EF801210160881E10BD8B694868ED
:1013600018440B69C01A91F848301BB191F8491024
:10137000401A10BD1103FCD50028FADD401E10BD37
:1013800010B500F009F8BDE81040FFF79CBD000063
:10139000004870477CAC442010B5012805D00021DE
:1013A00003A0FFF727FF012010BD09A1F8E7000007
:1013B00053494752544D454D3A204F7574206F663E
:1013C0002068656170206D656D6F727900000000A6
:1013D0003A2048656170206D656D6F727920636F8A
:1013E000727275707465640070B505460E4801F040
:1013F000A5FC002401E0601CC4B2642CFBDB0920C6
:1014000002F048FB284602F045FB02F01BFB0646B3
:10141000002401E0601CC4B2642CFBDB024801F034
:10142000F7FC304670BD000004C4420070B50646AB
:101430000D460E4801F082FC002401E0601CC4B29D
:10144000642CFBDB082002F025FB304602F022FB77
:10145000284602F01FFB002401E0601CC4B2642C8B
:10146000FBDB024801F0D4FC70BD000004C4420064
:1014700070B504460D46284601F062FD012020604B
:101480000020606070BDC0F89410704770B50346CE
:101490000C46B2FBF4F0451E4FF47F4000EA0521F4
:1014A00009B9002070BD586820F47F40014359609D
:1014B000681CB2FBF0F0024E306030460068F1E785
:1014C000DC0240202DE9F04105460E46B5F8A01299
:1014D000284600F065FC044634B1214606A0FEF71C
:1014E000D5FE2046BDE8F0813146284602F030FBAB
:1014F00007463846F6E700002D452D2041636D6410
:1015000031332E636D6435353A25640A0D000000D1
:10151000F8B507460D46164600BF0021384600F0D4
:101520003FFC04462CB1214611A0FEF7AFFE204639
:10153000F8BD154800901DB1009840F08040009023
:101540006946384602F022FB04462CB121460FA022
:10155000FEF79CFE2046EBE70098C0F380703070E9
:10156000009800F00040B0F1004FD6D10020DFE736
:101570002D452D2041636D6434312E636D64353506
:101580003A25640A0D0000000080FF002D452D2043
:1015900041636D6434312E636D6434313A25640ADD
:1015A0000D0000002DE9F04105460E46B5F8A012E9
:1015B000284600F0F5FB044634B1214608A0FEF7AA
:1015C00065FE2046BDE8F081042E01D1022000E036
:1015D0000020074600223946284602F0F0FAF1E7DB
:1015E0002D452D2041636D64362E636D6435353A8B
:1015F00025640A0D000000002DE9F34F8BB08346EF
:10160000F048007810B10DB0BDE8F08F0120ED4931
:1016100008700C9DD846EC480078B8B10020EA4923
:10162000087000270EE007EB4700E84911F820009A
:10163000022805D1012007EB4701E44A02F8210006
:10164000781CC7B2E24800788742ECDB00241CE03B
:10165000E04850F82400C0010590DF4931F824101B
:10166000059808440590BDF8160000B206A921F8B7
:10167000140006A830F91420D84800EB8420811CFF
:10168000002005F011FB601CC4B2082CE0DB002731
:1016900041E007EB4700CD4911F82000012838D17F
:1016A00007EB470001EB80008078082831DA07EB70
:1016B00047000B4603EB8000807806AB33F910201F
:1016C00007EB47000B4603EB80008078C34B03EB2E
:1016D0008020811C384607F09DF882460AF10100FF
:1016E00030B9032007EB4701B84A02F8210010E0A7
:1016F00007EB4700B54901EB8000807806A931F976
:101700001000504505D0032007EB4701AF4A02F80F
:101710002100781CC7B2AE4800788742B9DB0024AC
:1017200090E04FF00009AE4800EB44200A900026FC
:1017300049E0A94850F82400A64951F8241008446B
:10174000A54941F82400084600EB840040880028A1
:1017500015DD084600EB8400408848441FFA80F9F4
:101760009E4800EB8421A9F1010031F810009D4949
:1017700021F814000020984901EB84014880974823
:1017800000EB842030F91900964931F91410D0FA91
:1017900011F000B20490904830F8240041100498F1
:1017A00011FB00F020F3CF3004908E4830F9141074
:1017B000049891FA10F001B20A9801800A98801CEE
:1017C0000A90701C86B2802EB3DB844800EB842024
:1017D00030F81900814901EB842108808248005DBE
:1017E0008249095D884211D180207D4A02EB442361
:1017F0007E4A0090125DDFF8F8C13CF91210784A79
:1018000002EB4420042205F01EFC19E080217448FC
:1018100000EB4420744BCDE900011B5DDFF8D0C123
:101820003CF91320714B1B5D3CF913106C4B03EB1F
:101830004420042305F050FA6B48005D6B490855BD
:10184000601CC4B2082CFFF66CAF6A480078002810
:101850005DDD002615E058F8040B0390BDF80E007E
:1018600000B2654921F8160058F8040B0390BDF842
:101870000E0001B2614820F8161008F11808701C1B
:1018800086B2802EE7DB5B48007800F0010058B19B
:101890008023534A5849104605F0C2F98023584A1C
:1018A0005649104605F0BCF95248007800F0020095
:1018B00058B18023534A5049104605F0B1F98023AE
:1018C000514A4E49104605F0ABF94A48007800F0FD
:1018D000040058B180234D4A4749104605F0A0F94D
:1018E00080234B4A4549104605F09AF94148007853
:1018F00000F0080058B18023464A3F49104605F0E1
:101900008FF98023444A3D49104605F089F90026A5
:1019100051E000200390324830F8160080B2ADF854
:101920000E00039801C500200390354830F81600DA
:1019300080B2ADF80E00039801C500200390314835
:1019400030F8160080B2ADF80E00039801C50020F3
:1019500003902D4830F8160080B2ADF80E000398C1
:1019600001C500200390294830F8160080B2ADF878
:101970000E00039801C500200390254830F816009A
:1019800080B2ADF80E00039801C5002003902148F5
:1019900030F8160080B2ADF80E00039801C50020A3
:1019A00003901D4830F8160080B2ADF80E00039881
:1019B00001C5701C86B2802EABDB00200149087087
:1019C00000BF20E6AD004020AE004020EC024020E9
:1019D00024004020A04F4020C04F40200050402015
:1019E00000704020E04F4020B7004020AF00402072
:1019F000C00040202F004020008040200082402076
:101A00000072402000744020007640200078402082
:101A1000007A4020007C4020007E4020F8B5074638
:101A20000D4607F51C74204604F0CBFE12480090CA
:101A30004FF4997020830120A07600986061C4F86B
:101A400010D000221146384604F000FF06460EB1C1
:101A50003046F8BD009800F0004058B100202870D2
:101A6000009800F0C040B0F1804F01D101202870F3
:101A70000020EEE70820ECE70080FF402DE9F04170
:101A800005460E4605F51C74204604F09AFE0C200F
:101A9000A07640F21E40208326610022114628468F
:101AA00004F0D4FE07463846BDE8F0812DE9F04148
:101AB00005460E4605F51C74204604F082FE0D20F6
:101AC000A07612202083B5F8A00200046061266190
:101AD00000221146284604F0B9FE07463846BDE804
:101AE000F0812DE9F04705460E4690461F4605F564
:101AF0001C74204604F065FE162020830E20A0767C
:101B00002761A4F80C800120E081A6600022114624
:101B1000284604F09BFE81464846BDE8F0872DE943
:101B2000F04105460E4605F51C74204604F049FEBA
:101B3000122020831020A0766661002211462846DC
:101B400004F084FE07463846BDE8F0812DE9F047F1
:101B500005460E4617469846DDF8209005F51C749C
:101B6000204604F02EFE162020831120A076676107
:101B7000C4F81080B5F89602A0810120E081A6602B
:101B8000C4F8009000221146284604F05FFE824609
:101B90005046BDE8F0872DE9F05F05460E46174632
:101BA0009846DDE90A9A05F51C74204604F009FE02
:101BB000162020831220A076C4F81480C4F8109058
:101BC000B5F89602A081E681A760C4F800A00022C3
:101BD0001146284604F03AFE83465846BDE8F09F79
:101BE0002DE9F04705460E4690461F4605F51C7444
:101BF000204604F0E6FD1A2020831320A0762761FA
:101C0000A4F80C800120E081A6600022114628463D
:101C100004F01CFE81464846BDE8F0872DE9F047F8
:101C200005460E461746984605F51C74204604F0F6
:101C3000C8FD122020831720A0760020E08147EA0B
:101C4000C6706061C4F8108000221146284604F076
:101C5000FDFD81464846BDE8F0872DE9F05F054669
:101C60000E4617469846DDE90A9A05F51C7420468B
:101C700004F0A7FD1A2020831920A076C4F8148050
:101C8000C4F81090B5F89602A081E681A760C4F868
:101C900000A000221146284604F0D8FD834658468D
:101CA000BDE8F09FF8B5044604F51C75284604F01D
:101CB00088FD4FF4B17028830320A876C5F810D0B2
:101CC00094F8A202042803D094F8A202052812D1A5
:101CD000B4F8A002401C87B20FB9781C87B2380450
:101CE000686100221146204604F0B0FD06460EB998
:101CF000A4F8A0720AE000221146204604F0A6FDD6
:101D000006461EB90098000CA4F8A0023046F8BDA3
:101D10002DE9F04106460D4606F51C74204604F0F8
:101D200050FD4FF4A17020830520A07628686061E3
:101D3000256100221146304604F088FD07463846EA
:101D4000BDE8F0812DE9F84F0746884691469A464E
:101D5000DDE90AB4254607F51C76286868F3DF70CC
:101D60002860286869F31E70286028686AF3DB60C1
:101D7000286028686BF359202860304604F021FD64
:101D8000522030833420B0762068706134610022A4
:101D90001146384604F05AFD00900098BDE8F88FCF
:101DA000F8B506460D4606F51C74204604F009FDFC
:101DB0003720A0760DB1002001E04FF4807040F094
:101DC0001200208328046061C4F810D0002211465C
:101DD000304604F03BFD07463846F8BD2DE9F0419A
:101DE00006460D4606F51C74204604F0EAFC0DB1CB
:101DF000012000E0002000F00700022141EA00106D
:101E000020830720A0762804606100221146304616
:101E100004F01CFD07463846BDE8F08170B5054664
:101E200005F51C74204604F0CCFC222020830920F8
:101E3000A076B5F8A0020004606105F51870206175
:101E400000221146284604F001FD0646304670BDCA
:101E5000044A116800BF034A1268521A8242FAD338
:101E6000704700003000402001B502E00098401E9D
:101E7000009000980028F9D108BD41657047C16104
:101E80007047816070474160704742EA0143836157
:101E9000704702210160704781647047F0B5446863
:101EA0008B1E01F0010616B14FF4803600E00026CB
:101EB00035465B08E60AF602DFB23E434FF4E067C0
:101EC00007EA02273E432E434660F0BD0121016030
:101ED000704721B1026D42F48072026503E0026D29
:101EE00022F4807202657047416470470146C86CF5
:101EF00070470146486870470146086A70470146C6
:101F0000086C704710B501F063F9024800F06EF8F4
:101F100010BD00000C06402021B1426D42F48072D9
:101F2000426503E0426D22F48072426570470146CB
:101F3000486DC0F300207047F0B581B147688268F2
:101F4000C368C469056D466D4FF0800CC0F800C0D1
:101F500047608260C360C4610565466501E0802218
:101F60000260F0BD0A46C36823F0C001012A04D014
:101F7000042A04D0082A0AD105E0C16007E041F034
:101F80008003C36003E041F0C003C36000BF00BF33
:101F9000704700000A49096801F0010171B1084960
:101FA0008039096801F0010141B100BF4FF0604183
:101FB00009680029FAD04FF06042107070470000A5
:101FC000800E00E010B50446E07F08B90A2010BD7D
:101FD000E07F022807D10121204600F0EFFB0B2112
:101FE000204604F0AFF90020F1E700002DE9F047AA
:101FF0000446D4F800A0A56804B105E040F2D72259
:102000005DA166A0FEF7A4FA206800B105E04FF4D8
:10201000367259A163A0FEF79BFA35B9E07F02281A
:1020200001DB0120E077BDE8F0875046FFF767FF4E
:1020300081465046FFF75AFF5E490860084600682F
:1020400009EA00065C48304048B106F4801008B147
:102050000320E876A87E0C2801D00320E0775548BD
:1020600000685549C94308405249086006F001001C
:1020700048B101215046FFF70FFF4E48006820F09D
:1020800001004C49086006F0200048B1202150466C
:10209000FFF702FF4748006820F02000454908602C
:1020A00006F0040028B14348006820F004004149CC
:1020B000086006F0806050B14FF080615046FFF735
:1020C000EBFE3C48006820F080603A49086006F06A
:1020D000006050B14FF000615046FFF7DDFE35481B
:1020E000006820F00060334908603248006810B191
:1020F000E07F03283ED1E07F032804D10121204660
:1021000000F05CFB2AE00020E876286930B3287EE6
:10211000C0F3021008280ED2DFE800F00D040B0512
:102120000607080900BF00BF00BF00BF00BF0127AE
:1021300003E0042701E0002700BF00BF4FF00008C4
:1021400009E05046FFF7D8FE296941F8280008F158
:10215000010000F0FF08B845F3DB00BF5046FFF771
:10216000C5FE074639465046FFF796FEE97E2046F3
:1021700004F0E8F800BF56E72E2E5C53414D5C6C2E
:102180006962636869705C736F757263655C6D63C7
:1021900069645F646D612E6300000000704D6369C7
:1021A00064000000704D6369642D3E704D636948A2
:1021B00077000000D00240200000FFE02DE9F04150
:1021C00005460E4614462F6805B105E04FF46172CE
:1021D00029A132A0FEF7BCF9286800B105E040F261
:1021E000853225A12FA0FEF7B3F9112E26D007DCEA
:1021F0007EB1012E16D0022E1CD0032E37D114E052
:10220000122E2BD0132E20D0222E2CD0232E2ED1C6
:102210002AE0284600F0C0F808B9012000E00020BC
:10222000206026E00C20BDE8F081284600F038F957
:102230000020F8E72846FFF7C5FEF4E7EA682846DD
:10224000216800F0F3FA206013E021783846FFF7A8
:1022500063FE3846FFF76BFE20600AE021783846BF
:10226000FFF780FE05E004E00120206001E00C2083
:10227000D9E700BF0020D6E72E2E5C53414D5C6CA1
:102280006962636869705C736F757263655C6D63C6
:1022900069645F646D612E6300000000704D6369C6
:1022A00064000000704D6369642D3E704D636948A1
:1022B000770000002DE9F04704460D4616461F46FC
:1022C000DDE9089A04B105E04FF4ED7224A12DA0D8
:1022D000FEF73EF905B105E040F2DB1220A12BA08C
:1022E000FEF736F925600020A060C4F804904FF690
:1022F000FF70206100206061E760267784F81DA0F0
:10230000E077304604F050FA00212846FFF714FE2B
:102310002846FFF7BEFD4FF0FF312846FFF7BCFD12
:102320007F212846FFF7ADFD7F212846FFF7A7FD57
:102330001848B7FBF0F0401E1FFA80F848F4E0613F
:102340002846FFF7A0FD2846FFF7C0FD11212846CB
:10235000FFF793FD01212846FFF7BBFDBDE8F0879D
:102360002E2E5C53414D5C6C6962636869705C73CE
:102370006F757263655C6D6369645F646D612E6324
:1023800000000000704D636964000000704D6369D7
:102390000000000000350C0070B50446A568607FA1
:1023A00010B12046FFF722FEE07F022801D1002075
:1023B00070BD0DB10020FBE70120F9E72DE9F041E8
:1023C00004460D46266804B105E040F2072210A13C
:1023D00018A0FEF7BDF8206800B105E04FF40272C6
:1023E0000BA116A0FEF7B4F8002D02DD0920BDE810
:1023F000F081E07F012801DB0120F8E70120E07790
:10240000F06820F0030747EA0500F0600020EEE7DF
:102410002E2E5C53414D5C6C6962636869705C731D
:102420006F757263655C6D6369645F646D612E6373
:1024300000000000704D636964000000704D636926
:10244000642D3E704D6369487700000010B5044666
:1024500004B105E040F21B2206A10FA0FEF778F8B8
:10246000E07F022801DB022010BD0020E07700BFE2
:10247000FAE700002E2E5C53414D5C6C6962636884
:1024800069705C736F757263655C6D6369645F64CA
:102490006D612E6300000000704D636964000000F0
:1024A00070B5044625682046FFF78CFD2846FFF7E7
:1024B000F0FC2846FFF71DFDC0F30A06314628460A
:1024C000FFF7E1FC002211462846FFF7DEFC012160
:1024D000204600F073F9E07F022803D10B2120464B
:1024E00003F030FF70BD00002DE9F04780468A46BA
:1024F000D8F800905446B8F1000F00D005E040F243
:102500002E2299A1A1A0FEF723F8D8F8000000B16F
:1025100005E040F22F2294A19EA0FEF719F804B125
:1025200005E04FF40C7290A19EA0FEF711F8404612
:10253000FFF732FF10B90220BDE8F087022088F8CB
:102540001F00C8F808404846FFF7A3FC4846FFF7BD
:10255000D0FC20F46057208B012806D1394648462C
:10256000FFF791FC4FF0006574E0207EC0F381001E
:10257000032805D139464846FFF785FC8B4D69E0B5
:10258000207E00F07200022808D1884D207EC0F322
:10259000021003285ED125F480255BE0E08908B1B4
:1025A000A06858B947F4C0514846FFF76CFCE2896F
:1025B000A1894846FFF769FC7D4D4BE0207EC0F3C2
:1025C000400020B1E289A1894846FFF75EFCA0895E
:1025D00008B90120A081207B00F0030008B147F476
:1025E000005747F4C0514846FFF74DFC207EC0F32A
:1025F0008100022817D10021404604F0A7F828B135
:102600000221404603F09EFE022095E707F40051A8
:102610000022404603F010FF664DE089012819DDD5
:1026200045F0806516E00121404604F08FF828B19E
:102630000221404603F086FE02207DE707F40051A8
:102640000122404603F0F8FE5A4DE089012801DDE1
:1026500045F080654846FFF739FC207E00F0030016
:10266000002873D0A67E207E00F0010008B146F459
:102670001066208BC0F3002008B146F40066207E6F
:10268000C0F3400008B146F48056207EC0F38100BC
:1026900001281BD0022802D0032835D131E0208B3D
:1026A000C0F3402048B1A089012802D14FF40410A2
:1026B00001E04FF42410064307E0E089012801D12E
:1026C000000401E04FF4102006431DE0208BC0F30E
:1026D000402058B1A089012802D14FF4041001E034
:1026E0004FF4241040F48020064309E0E0890128DB
:1026F00001D1000401E04FF4102040F48020064393
:1027000002E046F4003600BF00BF207EC0F3021096
:10271000082812D2DFE800F011080E0405090A0BA0
:1027200000BF25F4802500BF00BF00BF00BF46F0FA
:10273000400605E046F0800602E025F4801500BF63
:1027400000BF6069C9F81000C9F81460207EC0F3AA
:102750008100032801D11848054029464846FFF763
:10276000C3FB0020E8E600002E2E5C53414D5C6C5C
:102770006962636869705C736F757263655C6D63D1
:1027800069645F646D612E6300000000704D6369D1
:1027900064000000704D6369642D3E704D636948AC
:1027A0007700000070436D640000000000009F0887
:1027B00001009F00000060C8FFFF9F3F70B5044606
:1027C0000D46266804B105E040F2851208A111A06B
:1027D000FDF7BEFE206800B105E04FF4C37204A10E
:1027E0000EA0FDF7B5FE29463046FFF7A5FB70BDEC
:1027F0002E2E5C53414D5C6C6962636869705C733A
:102800006F757263655C6D6369645F646D612E638F
:1028100000000000704D636900000000704D6369A6
:102820002D3E704D63694877000000002DE9F041AE
:1028300007460C461546D7F8008007B105E040F280
:10284000971211A119A0FDF783FEB8F1000F00D077
:1028500005E04FF4CC720CA116A0FDF779FEB5FB94
:10286000F4F004FB105010B9B5FBF4F602E028199F
:10287000B0FBF4F6B5FBF6F4072231464046FFF70D
:102880000DFB2046BDE8F0812E2E5C53414D5C6C63
:102890006962636869705C736F757263655C6D63B0
:1028A00069645F646D612E6300000000704D6369B0
:1028B00000000000704D6369487700002DE9F04783
:1028C00007460C46904607F51C7507B105E040F237
:1028D000B32215A11FA0FDF73BFE04B105E04FF4A4
:1028E0002D7211A11CA0FDF733FE284603F069FFED
:1028F00026460620A87612202883307800067178B4
:1029000040EA0140B17840EA0120F178084368616B
:10291000C5F8108000221146384603F097FF814623
:102920004846BDE8F08700002E2E5C53414D5C6C9C
:10293000696273746F726167656D656469615C7308
:102940006F757263655C73646D6D635C73646D6DEC
:10295000632E630070536400705377697463684139
:10296000726700002DE9F04105460E4605F51C741E
:10297000204603F026FF0820A076162020834FF47F
:102980000070A0810120E081A66000221146284647
:1029900003F05CFF07463846BDE8F08170B5044699
:1029A0000321D4F8600201EA9070022810D3D4F811
:1029B0006002C0F3836004280AD304F1200120469A
:1029C000FFF7D0FF05461DB1294602A0FDF75EFCCA
:1029D00070BD00002D452D204D6D63476574457811
:1029E000742E436D64383A2025640A0D00000000FF
:1029F0002DE9F84F80460D46174615B14FF400609B
:102A000001E04FF4C060814615B14FF4C06001E0B1
:102A10004FF40060824621E069464046FFF746F8E1
:102A2000044634B1214616A0FDF730FC2046BDE82F
:102A3000F88F009800F4807078B1009800F4F05698
:102A40004E4501D10020F2E7564505D0314614A08D
:102A5000FDF71CFC0520EAE702E000BF002FDBD1F8
:102A600000BF29464046FFF7B9F90446082C00D1BB
:102A700025B11CB1214613A0FDF708FC2046D6E77E
:102A80002D452D204D6D6353656C656374436172F4
:102A9000642E436D64313320282564290A0D00001B
:102AA0002D452D204D6D6353656C656374436172D4
:102AB000642C2077726F6E672073746174652025B3
:102AC000780A0D002D452D204D6D6353656C6563AF
:102AD00074436172642E436D643720282564290A8B
:102AE0000D0000002DE9FF5F04460E4691469A4610
:102AF000DDF838B094F8A20200F00600022801D1F7
:102B0000012000E00020029094F8A20200F00600EC
:102B1000042801D1012000E0002007464FF0000802
:102B20004FB16FF00041D4F88C02884201D3304697
:102B300000E0700280460298C0B1D4F88C02401CBC
:102B400008B9304600E07002804694F8A5020828D3
:102B500003D094F8A502072808D1204603F0EAFE26
:102B600005461DB1284604B0BDE8F09FBBF1000F3B
:102B700026D037B103AB4A4600212046FFF74EF876
:102B80000546002003A943465246CDE900104946B8
:102B90002046FFF700F805462DB129461BA0FDF79A
:102BA00075FB2846DFE7039820F4F85000282BD067
:102BB000039820F4F8511CA0FDF768FB0520D2E72C
:102BC00037B103AB4A4600212046FFF727F80546F8
:102BD000002003A943465246CDE90010494620464D
:102BE000FFF73BF805460DB12846BCE714490398AA
:102BF000084048B1039800EA01034A46414611A043
:102C0000FDF744FB0520AEE72846ACE72D452D2017
:102C10004D5472616E53746174652E436D64313826
:102C20003A2025640A0D00002D452D20434D4431E6
:102C3000382E737461743A20256C780A0D000000F8
:102C40000020D8E62D452D20434D443235283078DC
:102C500025782C202575292E737461743A202578E7
:102C60000A0D000010B51B480068401C1949086097
:102C70001948008800280DDD17480088401E80B2E2
:102C80001549088030B90021022004F03BFC0020E7
:102C900004F078FC1148008800280ADD0F480088FD
:102CA000401E80B20D49088018B90021084604F082
:102CB00029FC0B48008800280ADD09480088401ECE
:102CC00080B20749088018B90021012004F01AFCDD
:102CD00010BD00003000402034004020360040206D
:102CE0003800402000F01F0201219140024A4309B0
:102CF00042F823107047000080E200E000F01F025D
:102D0000012191404209920002F1E022C2F8001133
:102D10007047000010B5002807DA4A07140E054A6C
:102D200000F00F031B1FD45403E04A07130E024A9E
:102D3000135410BD18ED00E000E400E0D0E90012EB
:102D400051637047F8B504460D464AE0607A07289B
:102D500042D2DFE800F0040C141C242D2E00A37ACC
:102D600003F00102D4E9001000F083F836E0A37A02
:102D700003F00102D4E9001000F08FF82EE0A37AEE
:102D800003F00102D4E9001000F099F826E0A37ADC
:102D900003F00102D4E9001000F0A3F81EE0207A4D
:102DA00000F0CEF8A27AD4E9001000F035F815E072
:102DB00000BFA07A00F001000090A67AC6F380035D
:102DC000667A062E01D1012600E000263246D4E9BB
:102DD000001000F03CF801E00020F8BD00BF0C340A
:102DE0006D1E002DB2D10120F7E70146487A052873
:102DF00002D0487A062802D14868826B01E0486810
:102E0000C26B0868104008B9002070470120FCE739
:102E1000D0E9001211637047416402F001030BB165
:102E2000416600E0016602F00A030BB1016200E0B6
:102E3000416202F0020313B1C0F8801004E002F016
:102E400008030BB1C0F8841041610160704710B5F0
:102E5000029C41640CB1416600E001660BB1016562
:102E600000E041650AB1016300E041630161016076
:102E700010BD30B541640AB1416600E00166036FE0
:102E8000046F23EA01052C400467436F446F23EA73
:102E900001052C404467416030BD30B541640AB142
:102EA000416600E00166036F41EA03040467436F73
:102EB000446F23EA01052C404467416030BD30B5C2
:102EC00041640AB1416600E00166036F046F23EAC2
:102ED00001052C400467436F41EA030444674160E5
:102EE00030BD30B541640AB1416600E00166036F50
:102EF00041EA03040467436F41EA03044467416005
:102F000030BD00004FF480620C4B1A6000BF0B4ACA
:102F1000121D126802F48062002AF8D140EA010210
:102F2000064B1B1F9A641A151A6000BF034A6432CD
:102F3000126802F48062002AF8D0704704060E403E
:102F400010B504463F2C00D204E09E2212A119A025
:102F5000FDF7FEFA202C0ED2194800680121A1408D
:102F600008400121A140884215D00120A040144909
:102F7000083908600FE0203C1148F030016801205A
:102F8000A04001400120A040814204D00120A04087
:102F90000B49E831086010BD2E2E5C53414D5C6C2E
:102FA0006962636869705C736F757263655C706D8C
:102FB000632E630064774964203C203633000000B0
:102FC00018060E4010B50446402C00D204E0F5224D
:102FD0000AA111A0FDF7BCFA202C05D21448006804
:102FE0000121A140084010BD1148F0300068A4F153
:102FF000200101228A401040F5E700002E2E5C538C
:10300000414D5C6C6962636869705C736F75726373
:10301000655C706D632E630064774964203C2049D1
:10302000445F5045524950485F434F554E5400004D
:1030300018060E402DE9F04F85B004468946174624
:103040009B464FF00008002694F8A20200F006000C
:10305000022801D1012000E00020039094F8A20290
:1030600000F00600042801D1012000E000200290B9
:10307000029850B16FF00041D4F88C02884201D31D
:10308000484601E04FEA492006460398F0B1D4F8DB
:103090008C02401C08B9484601E04FEA4920064628
:1030A00094F8A502082803D094F8A50207280DD1AA
:1030B000204603F03FFC8046B8F1000F03D04046A5
:1030C00005B0BDE8F08F062084F8A502BBF1000F23
:1030D0001FD0002004AB3246394600902046FEF750
:1030E00035FD8046B8F1000F05D0414623A0FDF71D
:1030F000CDF84046E4E7049820F4F85038B104983D
:1031000020F4F85124A0FDF7C1F80520D8E7404687
:10311000D6E704A84FF0000A019004F51C75284674
:1031200003F04FFB1A2028831820A8766E610198BF
:103130002861B4F89602A8810120E881AF60C5F843
:1031400000A000221146204603F080FB009000986A
:103150008046B8F1000F01D04046B1E71449049809
:10316000084040B1049800EA0102314611A0FDF781
:103170008DF80520A4E74046A2E700002D452D204C
:1031800053696E676C6554782E436D6431373A200D
:1031900025640A0D000000002D452D20434D4431CB
:1031A000372E737461743A20256C780A0D00000084
:1031B0000020D8E62D452D20434D44323428307868
:1031C0002578292E737461743A2025780A0D000041
:1031D00010B500231B4C236000BF00BF00BFBFF32E
:1031E0004F8F00BF00BF00BF231F1868C0F34E31D0
:1031F00000BFC0F3C90200BF43F6E07303EA411306
:103200004FF0404404EA827423430F4C236000BF14
:1032100000BF131EA2F10102EED10B1EA1F10101AC
:10322000E7D100BF00BF00BFBFF34F8F00BF00BF9B
:1032300000BF00BF00BF00BFBFF36F8F00BF00BF64
:1032400000BF10BD84ED00E06CEF00E030B50A4631
:103250000446202300BF00BF00BFBFF34F8F00BF55
:1032600000BF00BF03E00B4D2C601C44D21A002AA3
:10327000F9DC00BF00BF00BFBFF34F8F00BF00BF2E
:1032800000BF00BF00BF00BFBFF36F8F00BF00BF14
:1032900000BF30BD68EF00E030B50A460446202389
:1032A00000BF00BF00BFBFF34F8F00BF00BF00BF14
:1032B00003E00B4D2C601C44D21A002AF9DC00BF3D
:1032C00000BF00BFBFF34F8F00BF00BF00BF00BFF4
:1032D00000BF00BFBFF36F8F00BF00BF00BF30BD96
:1032E00068EF00E010B500231B4C236000BF00BF57
:1032F00000BFBFF34F8F00BF00BF00BF231F186880
:10330000C0F34E3100BFC0F3C90200BF43F6E07303
:1033100003EA41134FF0404404EA827423430F4C04
:10332000236000BF00BF131EA2F10102EED10B1EED
:10333000A1F10101E7D100BF00BF00BFBFF34F8F74
:1033400000BF00BF00BF00BF00BF00BFBFF36F8F53
:1033500000BF00BF00BF10BD84ED00E074EF00E0CF
:1033600010B50023234C236000BF00BF00BFBFF394
:103370004F8F00BF00BF00BF231F1868C0F34E313E
:1033800000BFC0F3C90200BF43F6E07303EA411374
:103390004FF0404404EA82742343174C236000BF7B
:1033A00000BF131EA2F10102EED10B1EA1F101011B
:1033B000E7D100BF00BF00BFBFF34F8F00BF00BF0A
:1033C00000BF0C4B703B1B6843F48033094C703CCE
:1033D000236000BF00BF00BFBFF34F8F00BF00BF1F
:1033E00000BF00BF00BF00BFBFF36F8F00BF00BFB3
:1033F00000BF10BD84ED00E060EF00E010B50023D9
:103400001B4C236000BF00BF00BFBFF34F8F00BF46
:1034100000BF00BF231F1868C0F34E3100BFC0F3C8
:10342000C90200BF43F6E07303EA41134FF0404482
:1034300004EA827423430F4C236000BF00BF131EB5
:10344000A2F10102EED10B1EA1F10101E7D100BFF3
:1034500000BF00BFBFF34F8F00BF00BF00BF00BF62
:1034600000BF00BFBFF36F8F00BF00BF00BF10BD24
:1034700084ED00E060EF00E030B50A46044620230A
:1034800000BF00BF00BFBFF34F8F00BF00BF00BF32
:1034900003E00B4D2C601C44D21A002AF9DC00BF5B
:1034A00000BF00BFBFF34F8F00BF00BF00BF00BF12
:1034B00000BF00BFBFF36F8F00BF00BF00BF30BDB4
:1034C0005CEF00E030B50A460446202300BF00BF91
:1034D00000BFBFF34F8F00BF00BF00BF03E00B4D25
:1034E0002C601C44D21A002AF9DC00BF00BF00BFC8
:1034F000BFF34F8F00BF00BF00BF00BF00BF00BFC2
:10350000BFF36F8F00BF00BF00BF30BD5CEF00E0B6
:103510002DE9F04104460F4615461E4627606660B9
:103520000020A06084F8A452204603F051F9BDE8C1
:10353000F081000070B504460D461646034B324636
:1035400029462046FFF7E4FF70BD0000C00240207E
:103550002DE9FE430646894617461C46DDF82880BD
:1035600006B105E040F654321FA12AA0FCF7F0FF97
:1035700096F8A20200F00800002831D0B8F1000F40
:1035800002D10920BDE8FE8324E00020029002AAB7
:1035900038467F1C0023CDE900024A4619463046D2
:1035A000FEF7D0FB054614B1029804F8010B2DB1CB
:1035B00029461BA0FCF76AFE0520E3E7029800F409
:1035C000306038B1424639461CA0029BFCF75EFED3
:1035D0000520D7E7B8F10000A8F10108D5D101E036
:1035E0000C20CFE70020CDE72E2E5C53414D5C6CC4
:1035F000696273746F726167656D656469615C733C
:103600006F757263655C73646D6D635C73646D6D1F
:10361000632E630070536420213D204E554C4C00B6
:103620002D452D20494F5F52644469726563742EA5
:10363000436D6435323A2025640A0D002D452D2056
:1036400052445F4449524543542825752C20257522
:10365000292073742025780A0D000000F8B504466F
:10366000204603F0B5F8834800906946204602F0F2
:10367000BAFE00BF04F51C76304603F0A2F8012024
:10368000308300221146204603F0E0F8074600BFD1
:103690003D462DB1294678A0FCF7F8FD2846F8BD37
:1036A000204600F0BBFE05462DB1294678A0FCF768
:1036B000EDFD2846F3E7204600F08EFD05462DB1CE
:1036C00029467AA0FCF7E2FD2846E8E794F8A20232
:1036D00002280BD101022046FEF721FA05462DB142
:1036E000294672A0FCF7D2FD2846D8E74FF40070B7
:1036F000A4F89602062084F8A50294F8A20200F02D
:103700000600042840D14FF41970005BC0F301207B
:1037100081024FF41970005D01EB80014FF41A70C3
:103720000059032202EA9070084440F6FF71884273
:103730002AD194F8F41094F8F50001EB002194F8E4
:10374000F60001EB004194F8F70001EB0060C4F8CB
:103750009002D4F89002B0F5000F03D9101FC4F8FE
:103760008C026EE094F8F41094F8F50001EB00215F
:1037700094F8F60001EB004194F8F70001EB0060CB
:103780004002C4F88C025CE094F8A20200F006004B
:10379000022822D10321D4F8600201EA9070E0B13E
:1037A0004FF40070A4F894024FF41970005D010406
:1037B0004FF41A700059000E01EB00214FF41A70FB
:1037C0000059C0F307400844401C8002C4F890022E
:1037D0004FF0FF30C4F88C0233E094F8A20200F0FE
:1037E000060070B34FF40070A4F894024FF41970FF
:1037F000005BC0F3012081024FF41970005D01EB02
:1038000080014FF41A700059032202EA90700844B4
:10381000401C4FF41A710959C1F3C231891C0122AD
:103820008A4050434FF419710959C1F303420121F1
:1038300091404843C4F88C02D4F88C02400AC4F882
:10384000900294F8A20208B9082028E7E0680090E6
:103850006946204602F0C7FD4FF47A710098B0FB2C
:10386000F1F6314617A0FCF711FD0098C4F8980254
:10387000002014E7801A06002D452D2053445F498F
:103880006E69742E506F774F4E3A25640A0D000012
:103890002D452D2053445F496E69742E4964656E31
:1038A000746966793A2025640A0D00002D452D20A3
:1038B00053445F496E69742E456E756D3A202564D8
:1038C0000A0D00002D492D205365742053442F4DBF
:1038D0004D4320636C6F636B20746F2025754B0A1A
:1038E0000D0000002DE9F84304460F4615461E461C
:1038F000DDE9088904B105E040F6E8120DA118A041
:10390000FCF726FE05B105E040F6E91209A117A073
:10391000FCF71EFE00BF00BF082084F8A5020120AE
:10392000B2B22B46394600902046FFF7DBF8002064
:10393000BDE8F8832E2E5C53414D5C6C6962737454
:103940006F726167656D656469615C736F757263E1
:10395000655C73646D6D635C73646D6D632E630091
:1039600070536420213D204E554C4C0070446174CE
:103970006120213D204E554C4C0000002DE9F047C0
:1039800006460F4614461D464FF00008A14606B1F4
:1039900005E040F62A2215A11FA0FCF7D9FD04B1CD
:1039A00005E040F62B2211A11EA0FCF7D1FD05B1C8
:1039B00005E040F62C220DA11EA0FCF7C9FD0DE08C
:1039C00001234A4639463046FFF734FB8046B8F1BA
:1039D000000F00D006E07F1C09F50079281EA5F134
:1039E0000105EDD100BF4046BDE8F0872E2E5C53A7
:1039F000414D5C6C696273746F726167656D65647B
:103A000069615C736F757263655C73646D6D635C33
:103A100073646D6D632E630070536420213D204EEE
:103A2000554C4C00704461746120213D204E554C32
:103A30004C0000006E62426C6F636B7320213D206E
:103A40003000000070B5002500261DE06806050E58
:103A50000F48FFF7CAF908B145F001050C481838BE
:103A6000FFF7D6F9002401E0601CC4B2642CFBDB34
:103A700007481838FFF762F9002401E0601CC4B25F
:103A8000642CFBDB701CC6B2082EDFDB284670BD41
:103A900028C442002DE9F04105462E46002727E0C4
:103AA00006F0800018B11448FFF7B2F902E012489E
:103AB000FFF744F9002401E0601CC4B2642CFBDB76
:103AC0000D480C38FFF7A4F9002401E0601CC4B2D3
:103AD000642CFBDB08480C38FFF730F9002401E0C8
:103AE000601CC4B2642CFBDB7006060E781CC7B2E7
:103AF000082FD5DBBDE8F0811CC442002DE9F04160
:103B000004460D461646162748F20220206025B1CD
:103B10006800B6FBF0F0606001E0002060603846AD
:103B2000FFF70EFABDE8F0810161426170478161E3
:103B3000C26170470221016070474FF4007101605B
:103B400070470121016070474FF480710160704738
:103B50002DE9F04105460E4605F51C74204602F09D
:103B600030FE0D20A0761620208326614020A08103
:103B70000120E08105F50870A0600022114628466A
:103B800002F064FE07463846BDE8F0812DE9F041B9
:103B900006460D4606F51C74204602F012FE29204A
:103BA000A0763220208328686061256100221146BA
:103BB000304602F04BFE07463846BDE8F0812DE95D
:103BC000F04105460E46174605F51C74204602F0E6
:103BD000F8FD0620A076122020832761666100226E
:103BE0001146284602F032FE80464046BDE8F0818C
:103BF0002DE9F04707460C469046994607F51C7696
:103C000007B105E04FF4217226A131A0FCF7A0FC1A
:103C100004B105E040F2852222A12EA0FCF798FC19
:103C2000304602F0CEFD25460620B07616203083C1
:103C30002868C00FC0072968090E40EA817029680A
:103C4000C1F3035140EA01502968C1F3034140EA3E
:103C500001402988C1F3033140EA01302988C1F3CA
:103C6000032140EA01202978C1F3031140EA011041
:103C7000297801F00F0108437061B8F1000F05D0F9
:103C80004020B0810120F081C6F80880C6F810906D
:103C900000221146384602F0D9FD82465046BDE862
:103CA000F08700002E2E5C53414D5C6C696273748A
:103CB0006F726167656D656469615C736F7572636E
:103CC000655C73646D6D635C73646D6D632E63001E
:103CD00070536400705377697463684172670000C1
:103CE000F8B507460D4607F51C74204602F069FD3D
:103CF0000820A0764FF4B9702083AA2040EA05205E
:103D00006061C4F810D000221146384602F09EFDD2
:103D10000646032E00D1F8BD4EB90098C0F30B0043
:103D2000AA2141EA0521884201D10020F3E70520BC
:103D3000F1E7000038B50446B4F8A012012220468D
:103D4000FEF756FE054625B129460BA0FCF79EFA64
:103D500038BD69462046FDF7B5FBB4F8A012012234
:103D60002046FEF745FE054625B1294602A0FCF790
:103D70008DFAEDE700BFEBE72D452D2053644D6D27
:103D800063496E69742E53656C43617264282564BF
:103D9000290A0D002DE9F0470446042694F8A202F2
:103DA00000F00600042801D1012000E000200746B1
:103DB00087B1D4F86002C0F38360042804D320469E
:103DC00006F03CFA06463BE01EA0FCF75FFA0C202A
:103DD000BDE8F08794F8A20200F00800002801DD99
:103DE000012000E00020804694F8A20200F00600C6
:103DF000022801D1012000E000208146012E01D1DE
:103E00000C20E5E70426B8F1000F00D00126B9F137
:103E1000000F0ED031462046FDF7C4FB05462DB1FC
:103E200029460EA0FCF732FA0520D1E714A0FCF7D2
:103E30002DFA84F8A3623146204602F0C3FA00BF8F
:103E40000020C5E72D572D204D4D4320312D6269AF
:103E500074206F6E6C790A0D000000002D452D2036
:103E600053644D6D63536574427573576964746828
:103E70002E41636D64363A2025640A0D000000006F
:103E80002D572D20534420342D626974206D6F64AA
:103E9000650A0D002DE9FE43044694F8A20200F0E5
:103EA0000800002801DD012000E00020064694F80B
:103EB000A20200F00600022801D1012000E000204B
:103EC000074694F8A20200F00600042801D1012060
:103ED00000E000208046204602F066FA10B90C206F
:103EE000BDE8FE83B8F1000F39D00321D4F8600299
:103EF00001EA9070022809D0D4F8600201EA9070BB
:103F0000022823D994F8E20002281FDB94F8E40089
:103F100000F00200D0B152480068019002AA01A945
:103F20002046FEF7CBFC05462DB129464DA0FCF7F7
:103F3000ADF90520D4E753490298084028B152A0B2
:103F40000299FCF7A3F90C20CAE704E054A0FCF79F
:103F50009DF90C20C4E75AA0FCF798F97AE0002EEE
:103F600037D00020029002A8132100231A46CDE981
:103F7000001019462046FDF7E5FE05462DB12946FD
:103F800055A0FCF783F90520AAE7029800F001008C
:103F900020B959A0FCF77AF90C20A1E70220029081
:103FA00002A8132101230022CDE900101946204662
:103FB000FDF7C8FE05462DB1294658A0FCF766F965
:103FC00005208DE7029800F0020010B15BA0FCF71D
:103FD0005DF9002F3ED00321D4F8600201EA907011
:103FE00000282FD01E48001D0068019002AB594ADE
:103FF00001A92046FFF7FCFD05461DB9029800F017
:10400000800020B154A0FCF741F9052068E7514831
:104010000069C0F303600F2804D154A0FCF736F9FF
:104020000C205DE74B48C0694FF6FF7101EA104074
:1040300020B155A0FCF72AF9022051E757A0FCF760
:1040400025F907E02068C0F3036159A0FCF71EF9C9
:104050000C2045E70121204602F0DCF900203FE773
:1040600044C542002D452D2053644D6D63456E615E
:10407000626C6548532E436D64363A2025640A0D00
:10408000000000008020D8022D452D204D6D6320BA
:104090005377697463682048533A2025780A0D00E5
:1040A0002D492D204D4D4320776974686F7574201C
:1040B000485320737570706F72740A0D0000000011
:1040C0002D572D204D4D4320485320456E61626C85
:1040D00065640A0D000000002D452D2053644D6DD0
:1040E00063456E61626C6548532E436D6435323AA8
:1040F0002025640A0D0000002D492D204853204D35
:104100006F6465206E6F7420737570706F72746564
:1041100064206279205344494F0A0D002D452D201B
:1041200053644D6D63456E61626C6548532E436DFB
:1041300064353220483A2025640A0D002D572D2081
:104140005344494F20485320456E61626C65640AB0
:104150000D000000604F40202D452D205344204885
:1041600053204661696C0A0D000000002D572D2078
:104170005344204853204E6F7420537570706F72F3
:104180007465640A0D0000002D452D20534420481D
:1041900053204C6F636B65640A0D00002D492D2080
:1041A000534420485320456E61626C65640A0D00DB
:1041B0002D492D204853204E6F7420537570706F19
:1041C0007274656420696E205344205265762030F5
:1041D0007825780A0D0000002DE9FC5F04464FF0B9
:1041E000000A002001908146009094F8A20200F09D
:1041F0000600002801DD012000E00020064694F8BA
:10420000A20200F00800002801DD012000E00020EB
:104210008046EEB100BF04F51C77384602F0D1FAB3
:104220004FF4917038830220B87604F110003861A1
:1042300000221146204602F009FB83465D4600BF7E
:1042400035B1294646A0FCF721F82846BDE8FC9F79
:104250002046FDF727FD05462DB1294647A0FCF76E
:1042600015F82846F2E756B12046FDF7D7FD05467A
:104270002DB1294648A0FCF709F82846E6E7B4F82E
:10428000A01200222046FEF7B3FB05462DB12946B9
:1042900048A0FBF7FBFF2846D8E70323206803EA82
:1042A000907294F8A2124AA0FBF7F0FF0122114687
:1042B000204600F011FAB8F1000F03D0204600F0BC
:1042C000B9FA82461EB1204600F040FB0190B8F1D9
:1042D000000F08D03EB10198824501D9019800E055
:1042E0005046E06008E0B8F1000F02D0C4F80CA01E
:1042F00002E00EB10198E0604FF47A71E068484343
:10430000E0602046FFF746FD054615B90120009004
:1043100007E00C2D05D0294637A0FBF7B7FF052095
:1043200094E72046FFF7B6FD054615B94FF00109A1
:1043300003E00C2D01D0052088E7B9F1000F02D071
:10434000E0684000E060009810B9B9F1000F04D0B7
:1043500000224946204600F0BFF9002076E7000021
:104360002D452D2053644D6D63496E69742E636D28
:104370006432282564290A0D000000002D452D20F7
:1043800053644D6D63496E69742E636D64332825E3
:1043900064290A0D000000002D452D2053644D6D49
:1043A00063496E69742E636D6439282564290A0D8A
:1043B000000000002D452D2053644D6D63496E694A
:1043C000742E53656C43617264282564290A0D00BC
:1043D0002D492D2043617264205479706520257524
:1043E0002C204353445F5354525543545552452057
:1043F00025750A0D000000002D452D2053646D6DBC
:1044000063456E756D2E44657369646542757357B7
:10441000696474683A2025640A0D00002DE9FF479D
:10442000054600270026B0464FF001090020039002
:104430000021284601F0EEFF0121284601F0C2FFCD
:104440000820029002A8062100231A46CDE9001098
:1044500001212846FDF776FC04461CB9029800F4B9
:10446000306000B100BF0121284600F0A5FA0446E3
:1044700001212846FFF734FC044614B94FF0010827
:104480000DE0032C07D0214655A0FBF7FFFE0520C9
:1044900004B0BDE8F0874FF4FA50FDF7E5FC0020CA
:1044A000029002A92846FDF733FC044624B12146B8
:1044B00053A0FBF7EBFE2BE0029800F040500028E1
:1044C00026D042F2107A00BF554902980840029067
:1044D00002A92846FDF71CFC0446029800F00040A3
:1044E00000B105E024B9BAF10000AAF1010AEBD14C
:1044F00000BF2CB121464BA0FBF7C8FE0520C7E743
:10450000012650A0FBF7C2FE0298C0F3C06900BFAD
:10451000B9F1000F44D003AA41462846FCF7F8FF42
:104520000446002C31D042F2107A0A21284600F0CD
:1045300043FA04462CB1214645A0FBF7A7FE05200F
:10454000A6E70120039000BF03A92846FDF766FAFD
:10455000044624B1BAF10000AAF1010AF4D12CB149
:10456000214644A0FBF792FE052091E79DF80C0040
:1045700018B1052085F8A20202E0042085F8A20205
:1045800044A0FBF783FE002082E79DF80C0018B1E1
:1045900044A0FBF77BFE02E046A0FBF777FE012775
:1045A0004FB91EB1082085F8A20216E045A0FBF71E
:1045B0006DFE05206CE746B19DF80C0008B10B209C
:1045C00000E00A2085F8A20207E09DF80C0008B17F
:1045D000032000E0022085F8A202002058E7000036
:1045E0002D452D2053644D6D634964656E74696675
:1045F000792E436D64383A2025640A0D00000000CE
:104600002D492D2053644D6D634964656E74696650
:10461000792E436D64353A2025640A0D00000000B0
:104620000080FF002D452D2053644D6D6349646566
:104630006E746966792E436D643520563A20256480
:104640000A0D00002D492D205344494F0A0D00004A
:104650002D452D2053644D6D634964656E74696604
:10466000792E4D6D632E537752657365743A20250C
:10467000640A0D002D452D2053644D6D634964651A
:104680006E746966792E436D64313A2025640A0D93
:10469000000000002D492D204D4D432043617264E0
:1046A0000A0D00002D492D2053444843204D454D0F
:1046B0000A0D00002D492D205344204D454D0A0D73
:1046C000000000002D452D20556E6B6E6F776E201B
:1046D000636172640A0D00002DE9F04105460E4643
:1046E0001746D6B1012200212846FEF781F94FF482
:1046F0004870FDF7B9FB2846FDF790FB04462CB146
:10470000214611A0FBF7C2FDBDE8F081B5F8A0126B
:1047100001222846FEF76CF9044697B195F8A202EB
:1047200000F00600022802D0042808D103E0284641
:10473000FFF700FB04E02846FEF730F900E000BF79
:1047400000BF00BFE0E700002D452D2053644D6DF4
:1047500063557064617465496E666F2E436D64398C
:1047600020282564290A0D002DE9FF4F83B00E464D
:1047700091461F46DDF840A034464FF00008C3467E
:104780000020019035E0032002AB2246002100907A
:104790000398FEF7DDFE05463DB129461CA0FBF758
:1047A00075FD284607B0BDE8F08F9DF80800FF288A
:1047B00000D121E09DF80800202803D148F001082D
:1047C000A34609E09DF80800222805D19DF80A00BB
:1047D00010B948F0020801949DF8090000B90BE0F7
:1047E0009DF80900801C044406EB0900A04200D299
:1047F00002E0B8F1030FC6D100BF0FB1C7F800B097
:10480000BAF1000F02D00198CAF800000020C9E7F1
:104810002D452D205364696F46696E645475706C24
:1048200065732E52644469726563743A2025640A84
:104830000D0000007FB5054600260020039095F886
:10484000A20200F00800002832D0032003AB0922A6
:10485000002100902846FEF77BFE044634B1214635
:1048600014A0FBF713FD204604B070BD03A800237D
:104870004FF48072009028460399FFF775FF0446B5
:104880002CB1214617A0FBF701FD2046ECE7039869
:1048900070B1062001AB009000212846039AFEF774
:1048A00057FE9DF809001B4A1B4900F037F80646E1
:1048B0003046D9E72D452D205364696F55706461EA
:1048C000746543617264496E666F726D6174696F7D
:1048D0006E2E52644469726563743A2025640A0D31
:1048E000000000002D452D205364696F55706461F0
:1048F000746543617264496E666F726D6174696F4D
:104900006E2E46696E645475706C653A2025640A93
:104910000D0000009CC4420080C44200F0B5034674
:1049200003F0070551F8250008B90020F0BDC3F3D6
:10493000C30452F8240008B90020F7E751F8250015
:1049400052F8247000FB07F63046EFE770B50446D6
:10495000002594F860120DA0FBF798FC94F8A202D1
:1049600000F0060078B194F8A21201F006010229C5
:1049700001D10E4900E00E490A4694F860020D4943
:10498000FFF7CCFF0546284670BD00002D492D20BD
:10499000202E5452414E5F53504545442020202044
:1049A0002020202020307825580D0A009CC4420089
:1049B000DCC4420080C442002DE9F04704460E46A4
:1049C0004FF00008002717E04FF0000904F51C75B0
:1049D000284601F0F6FE02202883C5F81490002234
:1049E0001146204601F032FF824600BFD046B8F1A2
:1049F000030F00D002E07F1CB742E5D300BF404662
:104A0000BDE8F08710B5FEF72DF910BD2F480068FE
:104A100040F470002D4908602D482E4908602E484A
:104A2000006800F0807050B92C482B49086000BF26
:104A300029484830006800F001000028F8D02848D4
:104A40002549086000BF24484830006800F48030E1
:104A50000028F8D020481030006820F00300401CE7
:104A60001D491031086000BF1B484830006800F045
:104A700008000028F8D01B4817490831086000BF1B
:104A800015484830006800F002000028F8D040F2D5
:104A9000111011491031086000BF0F4848300068FC
:104AA00000F008000028F8D04FF489700A4910314E
:104AB000086000BF08484830006800F0080000287F
:104AC000F8D00948094908607047000088ED00E007
:104AD00000050004000C0E4020060E4009083700B7
:104AE00009083701013F2F20000E27070000402052
:104AF000014802490860704701474E5200000740D4
:104B00000148006D704700000000074070B536484E
:104B100000F036F9044604F0100010283CD1334868
:104B2000007870B91021304800F0B4F840F6024126
:104B30002D4800F0E9F801202C49087000202C498C
:104B4000088004F00800082812D104F004000428AA
:104B500048D1274802880088401C254B18802548EA
:104B6000815C214800F050F901202349087039E0A8
:104B700004F00200022835D11B4800F023F91F4938
:104B80001F4A128801EBC20219490B880988491C87
:104B9000174E3180D05425E004F40060B0F5006F6A
:104BA00020D140F60241104800F074F810210E4860
:104BB00000F0AAF800200D490870114805880E4839
:104BC000007860B9681C80B20546402800DB0025EB
:104BD0000C480088854205D00948058002E0002085
:104BE0000549087070BD000000800140640040204D
:104BF00066004020404D402065004020604D402030
:104C0000680040206A00402070B504460D468020B0
:104C100020604FF4FE0000EA0540A06040F2016011
:104C20006064666C0820206010202060206800F01E
:104C30002000202800D004E0A92202A108A0FBF750
:104C400087FC70BD2E2E5C53414D5C6C69626368BD
:104C500069705C736F757263655C7477692E63004D
:104C600028705477692D3E54574948535F4352206A
:104C7000262054574948535F43525F535644495383
:104C80002920213D2054574948535F43525F5356D2
:104C90004449530070B504460D4604B105E04FF495
:104CA000A87208A10EA0FBF753FC1148284000B1E0
:104CB00005E040F2511203A10EA0FBF749FCA562EA
:104CC00070BD00002E2E5C53414D5C6C69626368C0
:104CD00069705C736F757263655C7477692E6300CD
:104CE0007054776920213D204E554C4C0000000047
:104CF000F70F3D00736F757263657320262054575C
:104D00004948535F4954000070B504460D4604B14C
:104D100005E040F2431208A10EA0FBF719FC114870
:104D2000284000B105E04FF4A27203A10EA0FBF7EA
:104D30000FFC656270BD00002E2E5C53414D5C6C13
:104D40006962636869705C736F757263655C7477C0
:104D5000692E63007054776920213D204E554C4CDC
:104D600000000000F70F3D0028736F7572636573D4
:104D700020262054574948535F4954290000000019
:104D800010B5044604B105E040F25F1202A109A08B
:104D9000FBF7DEFB206A10BD2E2E5C53414D5C6C90
:104DA0006962636869705C736F757263655C747760
:104DB000692E63007054776920213D204E554C4C7C
:104DC0000000000010B5044604B104E0E42203A191
:104DD00009A0FBF7BDFB206BC0B210BD2E2E5C53AB
:104DE000414D5C6C6962636869705C736F75726376
:104DF000655C7477692E63007054776920213D20CB
:104E00004E554C4C0000000070B504460D4604B1F0
:104E100004E0F32202A109A0FBF79AFB656370BDD1
:104E20002E2E5C53414D5C6C6962636869705C73E3
:104E30006F757263655C7477692E6300705477696F
:104E400020213D204E554C4C0000000070B51F48FD
:104E500000F05DF8054605F0010098B11B481830D8
:104E60000068C6B21A4804882046611C8CB21949F1
:104E70000E54FF2C00DD002417480088844201D026
:104E80001348048005F00200F8B114480088144962
:104E90000988884212D0114801880088401C0F4AB6
:104EA00010801048405C09491C3108601046008899
:104EB000FF280ADD00201146088006E000200A498C
:104EC00008700021014800F02CF870BD001C0E4055
:104ED00056004020404A40205800402052004020C8
:104EE00050004020404940205400402010B54FF46D
:104EF000D67404604FF0FF34C4604160B3FBF2F439
:104F0000240904625024046010BD8160704701468A
:104F10004869704711B11022026001E0202202604E
:104F2000704711B14022026001E0802202607047A8
:104F300070B51E4800F065F8054605F0010090B117
:104F40001A488069C6B21A4804882046611C8CB28F
:104F500018490E54FF2C00DD0024174800888442B5
:104F600001D01348048005F00200F0B11348008816
:104F700013490988884211D0124801880088401CD2
:104F8000104A10801048405C0849C8610B480088EE
:104F9000FF280ADD00200949088006E000200B49AF
:104FA00008700021014800F0B2F870BD00C0024056
:104FB00060004020404C4020620040205C004020C7
:104FC0005A00402052004020404B40205E004020CC
:104FD0002DE9F04104460D4616461F464FF4D670A3
:104FE00020604FF0FF30E06065603B4632460021B4
:104FF000204600F009F850202060BDE8F081816073
:1050000070470146486970472DE9F05F04460E4637
:10501000174698464FF00A0A0026606800F4807030
:1050200000283BD1606800F00400042804D06068C8
:1050300000F00600062806D1206C7843B8FBF0F596
:105040004FF000092AE025E0F800C6F102014843CC
:10505000B8FBF0F5C6F102007843B8FBF0F0A0EB26
:10506000C50909EBC500B8FBF0F0C6F10201B0FBC1
:10507000F1FB64207843B0FBFBF0C0F1640ABAF1A5
:10508000050F07D9701CC6B2022E03DB14A0FBF774
:10509000FDF802E0BAF1050FD6D800BF606800F055
:1050A0000E000E2805D0606800F48070B0F5807F97
:1050B00009D1606800F0300028B9B8FBF7F5B8FBFB
:1050C000F7F0A0EB0509A8B24FF4E02101EA09418D
:1050D00008432062606840EAC6406060BDE8F09F17
:1050E0002D452D2043616E6F6E742073657420749E
:1050F000686973206261756472617465200A0D00CD
:1051000011B11022026001E020220260704711B14B
:105110004022026001E080220260704770B50446C0
:105120000D4604B104E0B42207A10FA0FBF710FA6A
:10513000182D00DA04E0B52203A10DA0FBF708FA50
:105140000120A840206270BD2E2E5C53414D5C6C46
:105150006962636869705C736F757263655C7864BB
:105160006D61632E630000007058646D6163000020
:105170006368616E6E656C203C2058444D41435F0E
:105180004348414E4E454C5F4E554D0070B5044668
:105190000D46164604B105E04FF4A57209A111A011
:1051A000FBF7D6F9182D00DA05E040F24B1205A105
:1051B0000EA0FBF7CDF904F1500000EB851046601E
:1051C00070BD00002E2E5C53414D5C6C69626368BB
:1051D00069705C736F757263655C78646D61632E72
:1051E000630000007058646D616300006368616E65
:1051F0006E656C203C2058444D41435F4348414E0E
:105200004E454C5F4E554D0070B504460D4604B1F9
:1052100004E06B2203A10BA0FBF79AF90120A84040
:10522000206170BD2E2E5C53414D5C6C69626368D9
:1052300069705C736F757263655C78646D61632E11
:10524000630000007058646D6163000070B504462F
:105250000D4604B104E09B2207A10FA0FBF778F9EB
:10526000182D00DA04E09C2203A10DA0FBF770F9D1
:105270000120A840E06170BD2E2E5C53414D5C6C56
:105280006962636869705C736F757263655C78648A
:105290006D61632E630000007058646D61630000EF
:1052A0006368616E6E656C203C2058444D41435FDD
:1052B0004348414E4E454C5F4E554D0070B5044637
:1052C0000D46164604B105E040F23B1209A111A0BB
:1052D000FBF73EF9182D00DA05E04FF49E7205A1A8
:1052E0000EA0FBF735F904F1500000EB85100660C5
:1052F00070BD00002E2E5C53414D5C6C696263688A
:1053000069705C736F757263655C78646D61632E40
:10531000630000007058646D616300006368616E33
:105320006E656C203C2058444D41435F4348414EDC
:105330004E454C5F4E554D0070B504460D4604B1C8
:1053400004E05F2203A10BA0FBF702F90120A840B3
:10535000E06070BD2E2E5C53414D5C6C69626368E9
:1053600069705C736F757263655C78646D61632EE0
:10537000630000007058646D6163000070B50546FD
:105380000C4605B105E04FF4B27209A110A0FBF77D
:10539000DFF8182C00DA05E040F2651204A10EA037
:1053A000FBF7D6F805F1500000EB8410C06870BD23
:1053B0002E2E5C53414D5C6C6962636869705C734E
:1053C0006F757263655C78646D61632E63000000C5
:1053D0007058646D616300006368616E6E656C2077
:1053E0003C2058444D41435F4348414E4E454C5F3D
:1053F0004E554D0070B505460C4605B105E040F22E
:10540000571209A110A0FBF7A3F8182C00DA05E049
:105410004FF4AC7204A10EA0FBF79AF805F150000E
:1054200000EB8410806870BD2E2E5C53414D5C6C87
:105430006962636869705C736F757263655C7864D8
:105440006D61632E630000007058646D616300003D
:105450006368616E6E656C203C2058444D41435F2B
:105460004348414E4E454C5F4E554D0010B50446E5
:1054700004B104E0812203A10AA0FBF769F8A06946
:1054800010BD00002E2E5C53414D5C6C6962636858
:1054900069705C736F757263655C78646D61632EAF
:1054A000630000007058646D6163000010B504462D
:1054B00004B104E0CF2203A10AA0FBF749F8606A17
:1054C00010BD00002E2E5C53414D5C6C6962636818
:1054D00069705C736F757263655C78646D61632E6F
:1054E000630000007058646D6163000070B504468D
:1054F0000D4604B105E04FF4B9720DA114A0FBF7FD
:1055000027F8182D00DA05E040F2731208A112A066
:10551000FBF71EF804F1500000EB8510C66804F19B
:10552000500000EB851080680640304670BD0000DA
:105530002E2E5C53414D5C6C6962636869705C73CC
:105540006F757263655C78646D61632E6300000043
:105550007058646D616300006368616E6E656C20F5
:105560003C2058444D41435F4348414E4E454C5FBB
:105570004E554D0010B5044604B104E03D2203A190
:105580000AA0FAF7E5FF206810BD00002E2E5C533C
:10559000414D5C6C6962636869705C736F757263BE
:1055A000655C78646D61632E630000007058646D03
:1055B0006163000010B5024800F036FC10BD000029
:1055C0008004402070B504460D46164604B105E03F
:1055D0004FF4E7720AA112A0FAF7BAFF182D00DA09
:1055E00005E040F2CF1206A10FA0FAF7B1FFC6F313
:1055F0000B0104F1500000EB8510416270BD00000A
:105600002E2E5C53414D5C6C6962636869705C73FB
:105610006F757263655C78646D61632E6300000072
:105620007058646D616300006368616E6E656C2024
:105630003C2058444D41435F4348414E4E454C5FEA
:105640004E554D0070B504460D46164604B105E0B2
:105650004FF4EE7209A111A0FAF77AFF182D00DAC3
:1056600005E040F2DD1205A10EA0FAF771FF04F18A
:10567000500000EB8510866270BD00002E2E5C533A
:10568000414D5C6C6962636869705C736F757263CD
:10569000655C78646D61632E630000007058646D12
:1056A000616300006368616E6E656C203C20584445
:1056B0004D41435F4348414E4E454C5F4E554D0072
:1056C00070B504460D46164604B105E040F2F912E5
:1056D00009A111A0FAF73CFF182D00DA05E04FF4FC
:1056E000FD7205A10EA0FAF733FF04F1500000EBA4
:1056F0008510C66270BD00002E2E5C53414D5C6C5F
:105700006962636869705C736F757263655C786405
:105710006D61632E630000007058646D616300006A
:105720006368616E6E656C203C2058444D41435F58
:105730004348414E4E454C5F4E554D002DE9F041DA
:1057400004460D4617461E4604B105E04FF4D172DB
:105750000FA117A0FAF7FCFE022E00DA05E040F2D6
:10576000A3120BA114A0FAF7F3FE182D00DA05E03E
:105770004FF4D27206A113A0FAF7EAFE27F0030055
:10578000304304F1500101EB85118861BDE8F081DF
:105790002E2E5C53414D5C6C6962636869705C736A
:1057A0006F757263655C78646D61632E63000000E1
:1057B0007058646D616300006E64616966203C200E
:1057C000320000006368616E6E656C203C205844B6
:1057D0004D41435F4348414E4E454C5F4E554D0051
:1057E00070B504460D46164604B105E04FF4D97273
:1057F00009A111A0FAF7ACFE182D00DA05E040F27D
:10580000B31205A10EA0FAF7A3FE04F1500000EBBD
:105810008510C66170BD00002E2E5C53414D5C6C3E
:105820006962636869705C736F757263655C7864E4
:105830006D61632E630000007058646D6163000049
:105840006368616E6E656C203C2058444D41435F37
:105850004348414E4E454C5F4E554D0070B5044691
:105860000D46164604B105E040F2911209A111A0BF
:10587000FAF76EFE182D00DA05E04FF4C97205A1A3
:105880000EA0FAF765FE04F1500000EB85104661AA
:1058900070BD00002E2E5C53414D5C6C69626368E4
:1058A00069705C736F757263655C78646D61632E9B
:1058B000630000007058646D616300006368616E8E
:1058C0006E656C203C2058444D41435F4348414E37
:1058D0004E454C5F4E554D0070B504460D4616467C
:1058E00004B105E040F217220AA112A0FAF730FE37
:1058F000182D00DA05E04FF4067206A10FA0FAF7A2
:1059000027FE26F07F4104F1500000EB8510416333
:1059100070BD00002E2E5C53414D5C6C6962636863
:1059200069705C736F757263655C78646D61632E1A
:10593000630000007058646D616300006368616E0D
:105940006E656C203C2058444D41435F4348414EB6
:105950004E454C5F4E554D0070B504460D461646FB
:1059600004B105E04FF4E0720AA112A0FAF7F0FDCD
:10597000182D00DA05E040F2C11206A10FA0FAF7D7
:10598000E7FD26F07F4104F1500000EB8510016235
:1059900070BD00002E2E5C53414D5C6C69626368E3
:1059A00069705C736F757263655C78646D61632E9A
:1059B000630000007058646D616300006368616E8D
:1059C0006E656C203C2058444D41435F4348414E36
:1059D0004E454C5F4E554D0070B504460D4616467B
:1059E00004B105E040F2831209A111A0FAF7B0FD5D
:1059F000182D00DA05E04FF4C27205A10EA0FAF7E7
:105A0000A7FD04F1500000EB8510066170BD000099
:105A10002E2E5C53414D5C6C6962636869705C73E7
:105A20006F757263655C78646D61632E630000005E
:105A30007058646D616300006368616E6E656C2010
:105A40003C2058444D41435F4348414E4E454C5FD6
:105A50004E554D0070B504460D46164604B105E09E
:105A60004FF402720AA112A0FAF772FD182D00DAA3
:105A700005E040F2092206A10FA0FAF769FD26F021
:105A80007F4104F1500000EB8510016370BD000000
:105A90002E2E5C53414D5C6C6962636869705C7367
:105AA0006F757263655C78646D61632E63000000DE
:105AB0007058646D616300006368616E6E656C2090
:105AC0003C2058444D41435F4348414E4E454C5F56
:105AD0004E554D00F8B504460D4616464FF6FF7775
